{
  "took": 3,
  "timed_out": false,
  "_shards": {
    "total": 5,
    "successful": 5,
    "skipped": 0,
    "failed": 0
  },
  "hits": {
    "total": 10000,
    "max_score": 1.0,
    "hits": [
      {
        "_index": "btc_tx_new",
        "_type": "raw",
        "_id": "08cce37d17a89afd666754b1c6240d3fde8696850901013686af7b2661c6fd8d",
        "_score": 1.0,
        "_source": {
          "dayprice": 4.3,
          "iscoinbase": false,
          "fee": 0,
          "hash": "08cce37d17a89afd666754b1c6240d3fde8696850901013686af7b2661c6fd8d",
          "vout": [
            {
              "n": 0,
              "value": 8.40580478,
              "scriptPubKey": {
                "type": "pubkeyhash",
                "hex": "76a914a458ad477fa1f5fc9a6667e9c9f85be9bacb21de88ac",
                "addresses": [
                  "1Fyz3qZdsVHZtuBRwZ8DvnHV4x9QfxoGg6"
                ],
                "asm": "OP_DUP OP_HASH160 a458ad477fa1f5fc9a6667e9c9f85be9bacb21de OP_EQUALVERIFY OP_CHECKSIG",
                "reqSigs": 1
              }
            },
            {
              "n": 1,
              "value": 0.01,
              "scriptPubKey": {
                "type": "pubkeyhash",
                "hex": "76a91465d44bb14bc5e3ceea88010452633b624520719788ac",
                "addresses": [
                  "1AHRZwLjkc5xZnWXqVs9NQKZT5gvDheFQU"
                ],
                "asm": "OP_DUP OP_HASH160 65d44bb14bc5e3ceea88010452633b6245207197 OP_EQUALVERIFY OP_CHECKSIG",
                "reqSigs": 1
              }
            }
          ],
          "weight": 1036,
          "hex": "0100000001ebb8256515cdf47690f96d8e5bf5057d4e27046a6a617617b0a507ae73651600010000008c493046022100c6e00ea72c3c9de1e481925a829cfbaa673f82e39faf3c1916e8a77022b1aea302210083c0bdece009dbec3debe36c791b27efe3a764c78d1f4ddae7006d40cb82a3420141045b69ce2c7b0ebb7a6c91393f8a47b57a4406cea0d3e42ecae3819c2d882c388d724abd8035617bb03417cbbbf0f0af6ef4538bab9727a287e3b7b12058622cabffffffff027e3d1a32000000001976a914a458ad477fa1f5fc9a6667e9c9f85be9bacb21de88ac40420f00000000001976a91465d44bb14bc5e3ceea88010452633b624520719788ac00000000",
          "blockhash": "0000000000000a008e8a6cae76b9e9bbf2321f0e24cbde1c77299c1a3673a3b5",
          "vin": [
            {
              "scriptSig": {
                "hex": "493046022100c6e00ea72c3c9de1e481925a829cfbaa673f82e39faf3c1916e8a77022b1aea302210083c0bdece009dbec3debe36c791b27efe3a764c78d1f4ddae7006d40cb82a3420141045b69ce2c7b0ebb7a6c91393f8a47b57a4406cea0d3e42ecae3819c2d882c388d724abd8035617bb03417cbbbf0f0af6ef4538bab9727a287e3b7b12058622cab",
                "asm": "3046022100c6e00ea72c3c9de1e481925a829cfbaa673f82e39faf3c1916e8a77022b1aea302210083c0bdece009dbec3debe36c791b27efe3a764c78d1f4ddae7006d40cb82a342[ALL] 045b69ce2c7b0ebb7a6c91393f8a47b57a4406cea0d3e42ecae3819c2d882c388d724abd8035617bb03417cbbbf0f0af6ef4538bab9727a287e3b7b12058622cab"
              },
              "vout": 1,
              "sequence": 4294967295,
              "value": 841580478,
              "txid": "00166573ae07a5b01776616a6a04274e7d05f55b8e6df99076f4cd156525b8eb",
              "addresses": "1ErCfgrWRuND2Qv9z3tGJAN5sLwJd43sQZ"
            }
          ],
          "txid": "08cce37d17a89afd666754b1c6240d3fde8696850901013686af7b2661c6fd8d",
          "volume": 841580478,
          "blocktime": "2012-02-21T16:19:37",
          "version": 1,
          "inputvalue": 841580478,
          "blockheight": 167835,
          "locktime": 0,
          "vsize": 259,
          "outputvalue": 841580478,
          "size": 259
        }
      },
      {
        "_index": "btc_tx_new",
        "_type": "raw",
        "_id": "d520ad675a2392779468b6c467a1124a94b22c0d113da2bc1f396db192133f1c",
        "_score": 1.0,
        "_source": {
          "dayprice": 4.3,
          "iscoinbase": false,
          "fee": 0,
          "hash": "d520ad675a2392779468b6c467a1124a94b22c0d113da2bc1f396db192133f1c",
          "vout": [
            {
              "n": 0,
              "value": 111.87936321,
              "scriptPubKey": {
                "type": "pubkeyhash",
                "hex": "76a914ad284083f76c9140d71acd9a225048b7806967bd88ac",
                "addresses": [
                  "1Gna7wr1BY8o42E8WErsu9hcYwrm4TgYeH"
                ],
                "asm": "OP_DUP OP_HASH160 ad284083f76c9140d71acd9a225048b7806967bd OP_EQUALVERIFY OP_CHECKSIG",
                "reqSigs": 1
              }
            },
            {
              "n": 1,
              "value": 0.12063679,
              "scriptPubKey": {
                "type": "pubkeyhash",
                "hex": "76a914ab9041c3216610649123cdfb21b4b0a9677fd91688ac",
                "addresses": [
                  "1Ge9MwvhtBxJvXLep4aLoqjLjAq7r3r6Hz"
                ],
                "asm": "OP_DUP OP_HASH160 ab9041c3216610649123cdfb21b4b0a9677fd916 OP_EQUALVERIFY OP_CHECKSIG",
                "reqSigs": 1
              }
            }
          ],
          "weight": 1036,
          "hex": "0100000001614f419cfbff004ab5c07d2883161c58e018c40a4b806ddb6f2378f949e999dd010000008c493046022100f4576eaa569677fd286d06a31014ed78eaf0b88a89704b7ddb60770a659af82c022100e9d357efcd90f84f077a9e8a085bd83afea9aab6367af71506a05c69c48f1094014104cf0693c91ac78abeb619188dd83ce70acf14017633b71142a5f841e9f20571f47d128ef9677015f7134cb2803e25a2906e3b24000318139cbcc1684f8d87826effffffff02415cda9a020000001976a914ad284083f76c9140d71acd9a225048b7806967bd88acbf13b800000000001976a914ab9041c3216610649123cdfb21b4b0a9677fd91688ac00000000",
          "blockhash": "0000000000000a008e8a6cae76b9e9bbf2321f0e24cbde1c77299c1a3673a3b5",
          "vin": [
            {
              "scriptSig": {
                "hex": "493046022100f4576eaa569677fd286d06a31014ed78eaf0b88a89704b7ddb60770a659af82c022100e9d357efcd90f84f077a9e8a085bd83afea9aab6367af71506a05c69c48f1094014104cf0693c91ac78abeb619188dd83ce70acf14017633b71142a5f841e9f20571f47d128ef9677015f7134cb2803e25a2906e3b24000318139cbcc1684f8d87826e",
                "asm": "3046022100f4576eaa569677fd286d06a31014ed78eaf0b88a89704b7ddb60770a659af82c022100e9d357efcd90f84f077a9e8a085bd83afea9aab6367af71506a05c69c48f1094[ALL] 04cf0693c91ac78abeb619188dd83ce70acf14017633b71142a5f841e9f20571f47d128ef9677015f7134cb2803e25a2906e3b24000318139cbcc1684f8d87826e"
              },
              "vout": 1,
              "sequence": 4294967295,
              "value": 11200000000,
              "txid": "dd99e949f978236fdb6d804b0ac418e0581c1683287dc0b54a00fffb9c414f61",
              "addresses": "1CLVnMWEwzuGVcQ6L2WBoUJQFj3B9XeVmx"
            }
          ],
          "txid": "d520ad675a2392779468b6c467a1124a94b22c0d113da2bc1f396db192133f1c",
          "volume": 11200000000,
          "blocktime": "2012-02-21T16:19:37",
          "version": 1,
          "inputvalue": 11200000000,
          "blockheight": 167835,
          "locktime": 0,
          "vsize": 259,
          "outputvalue": 11200000000,
          "size": 259
        }
      }
    ]
  }
}